:100000000C94A0000C94B2000C94B2000C94B200BA
:100010000C94B2000C94B2000C94B2000C94B20098
:100020000C94B2000C94B2000C94B2000C94B20088
:100030000C94B2000C94B2000C94B2000C94B20078
:100040000C94B2000C94B2000C94B2000C94B20068
:100050000C94B2000C94B2000C94B2000C94B20058
:100060000C94B2000C94B2000C94B2000C94B20048
:100070000C94B2000C94B2000C94B2000C94B20038
:100080000C94B2000C94B2000C94FE090C94B200D3
:100090000C94B2000C94B2000C94B2000C94B20018
:1000A00049064C064F065206550658065B065E0684
:1000B00064066406640664066406640664066406F0
:1000C00064066406640664066406640664066406E0
:1000D00064066406640664066406640664066406D0
:1000E00064066406640664066406640664066106C3
:1000F00064066406640664066406640664066406B0
:10010000640664066406640664066406640664069F
:10011000640664066406640664066406640664068F
:100120006406640664066406640664066406610682
:10013000480860084B084E085108540857085A08E8
:1001400011241FBECFEFCDBFDFE3DEBF28E2A0E06A
:10015000B8E201C01D92A133B207E1F70E949D0AE7
:100160000C94210D0C94000086E49AE50E942F0A5D
:1001700088E69AE50E942F0A86E49AE50E942F0AF3
:100180008FE79AE50E942F0A8CE89AE50E942F0AD1
:100190008FE99AE50E942F0A89EB9AE50E942F0ABF
:1001A00082ED9AE50E942F0A86EE9AE50E942F0AB8
:1001B0008CEF9AE50E942F0A80E19BE50E942F0AAE
:1001C00089E29BE50E942F0A86E49AE50E942F0AA5
:1001D00080E49BE50E942F0A089589E49BE50E9434
:1001E0002F0A8EE49BE50E942F0A08958EE49BE57A
:1001F0000E942F0A08951F93CF93DF93CDB7DEB7E8
:100200002697CDBFDEBFAC01892B91F580E30E941C
:10021000280A41C09A01ADECBCEC0E94120D9695E3
:10022000879596958795969587959C01220F331F04
:10023000880F991F880F991F880F991F820F931F8E
:100240009A01281B390BC901E1E0F0E0EC0FFD1F1A
:10025000E10FF11D805D80839A010E94120DAC01B7
:100260005695479556954795569547951F5F01C0FA
:1002700010E04115510569F0163060F20AC01150C6
:10028000E1E0F0E0EC0FFD1FE10FF11D80810E9425
:10029000280A1111F4CF2696CDBFDEBFDF91CF9192
:1002A0001F9108958F929F92AF92BF92CF92DF924B
:1002B000EF92FF92CF93DF936B017C010E949C0B26
:1002C0004B015C0180E090E00E94CB0B9B01AC01F4
:1002D000C701B6010E94B80A20E030E048EC52E4C1
:1002E0000E947D0C20E030E040E05FE30E94B90A0C
:1002F0000E949C0B6B017C01C4010E94FB008EE2FA
:100300000E94280A9601ADECBCEC0E94120DEC0193
:10031000D695C795D695C795D695C7958C2F805DF0
:100320000E94280ACE01880F991FCC0FDD1FCC0F29
:10033000DD1FCC0FDD1FC80FD91FC6018C1B9D0B05
:10034000805D0E94280ADF91CF91FF90EF90DF90AF
:10035000CF90BF90AF909F908F9008951F93CF93B1
:10036000DF93CDB7DEB76197CDBFDEBF182F81E138
:10037000E2E5FBE5DE01119601900D928A95E1F729
:10038000812F82958F70E1E0F0E0EC0FFD1FE80F08
:10039000F11D80810E94280A1F70E1E0F0E0EC0F5F
:1003A000FD1FE10FF11D80810E94280A6196CDBFDB
:1003B000DEBFDF91CF911F9108951F93CF93DF93FD
:1003C000CDB7DEB72B97CDBFDEBF611571058105B7
:1003D0009105C1F480E30E94280A29C02AE030E098
:1003E00040E050E00E94EA0CE1E0F0E0EC0FFD1F7D
:1003F000E10FF11D605D6083622F732F842F952FB5
:100400001F5F01C010E0611571058105910569F05C
:100410001B3020F30AC01150E1E0F0E0EC0FFD1FAB
:10042000E10FF11D80810E94280A1111F4CF2B9653
:10043000CDBFDEBFDF91CF911F91089583E69BE58D
:100440000E942F0A86E79BE50E942F0A0E946308FC
:100450002FEF89E698E1215080409040E1F700C0FD
:10046000000082E89BE50E942F0A0E9467082FEF98
:1004700083EC99E0215080409040E1F700C00000FB
:100480008FE89BE50E942F0A0E946B082FEF89E6F8
:1004900098E1215080409040E1F700C000008AE9D7
:1004A0009BE50E942F0A0E946F082FEF83EC99E0D2
:1004B000215080409040E1F700C0000086EA9BE5B3
:1004C0000E942F0A0E9463080E946B082FEF89E6A2
:1004D00098E1215080409040E1F700C0000082EB9D
:1004E0009BE50E942F0A0E9473088FEB9BE50E94F8
:1004F0002F0A0895CF93DF931F92CDB7DEB71982ED
:1005000080ED9BE50E942F0A89EE9BE50E942F0A51
:100510000E94940A882359F00E949A0A813711F0A8
:10052000813529F48CE09CE50E942F0A25C0CE017C
:1005300001960E9482078130C1F483E29CE50E940B
:100540002F0A89810E94490A87E29CE50E942F0AAE
:100550000E946B082FEF86E791E021508040904089
:10056000E1F700C000000E946F088FE39CE901974B
:10057000F1F700C00000CCCF0F90DF91CF9108952C
:10058000CF92DF92EF92FF92CF93DF938FE29CE5C1
:100590000E942F0A88EF9BE50E942F0A0E94940A6E
:1005A000882369F00E949A0A813711F0813539F465
:1005B0008FE49CE50E942F0A0E94670856C080E1E4
:1005C0000E948F06EC010E94B70620E030E048EC64
:1005D00052E40E947D0C20E030E040E05FE30E94A6
:1005E000B90A0E949C0B80E090E00E94CB0B20E0B7
:1005F00030E048EC52E40E942A0B6B017C018DE64E
:100600009CE50E942F0ACE010E94FB0088E79CE532
:100610000E942F0AC701B6010E94520182E89CE5A0
:100620000E942F0AC701B6010E94D0060E942F0A1D
:100630008CE49CE50E942F0A20E030E040E450E486
:10064000C701B6010E94250B88231CF40E94630891
:1006500002C00E9467082FEF89E698E12150804090
:100660009040E1F700C0000099CFDF91CF91FF905B
:10067000EF90DF90CF90089587E89CE50E942F0AC5
:1006800088EF9BE50E942F0A0E94940A882359F064
:100690000E949A0A813711F0813529F481EA9CE59C
:1006A0000E942F0A089589EB9CE50E942F0A0E9460
:1006B000A3080E942F0A8BEE9DE50E942F0A2FEFC0
:1006C00089E698E1215080409040E1F700C00000A9
:1006D000DBCFCF92DF92EF92FF9284EC9CE50E94F9
:1006E0002F0A88EF9BE50E942F0A0E94940A882314
:1006F00069F00E949A0A813711F0813539F40E941D
:10070000730883EE9CE50E942F0A87C00E94B706FB
:1007100020E030E048EC52E40E947D0C20E030E024
:1007200040E05FE30E94B90A0E949C0B80E090E0E9
:100730000E94CB0B20E030E048EC52E40E942A0BF0
:100740006B017C0180E09DE50E942F0A0E949908C0
:100750000E942F0A8BEE9DE50E942F0A89EB9CE5F3
:100760000E942F0A0E94A3080E942F0A8BEE9DE58B
:100770000E942F0A8BE09DE50E942F0AC701B60157
:100780000E94520182E89CE50E942F0AC701B6012F
:100790000E94D0060E942F0A8CE49CE50E942F0A3A
:1007A0000E948E08811107C086E19DE50E942F0AF4
:1007B0000E94730824C00E949408811107C08CE332
:1007C0009DE50E942F0A0E94730819C080E59DE5EF
:1007D0000E942F0A0E941D070E942F0A8BEE9DE5A2
:1007E0000E942F0A0E941607882329F00E9463089E
:1007F0000E946F0804C00E9467080E946B088BEE7D
:100800009DE50E942F0A2FEF89E698E12150804054
:100810009040E1F700C0000068CFFF90EF90DF90BC
:10082000CF9008958BE59DE50E942F0A87E79DE50F
:100830000E942F0A88E99DE50E942F0A0E947308F2
:100840002FEF85EA9EE0215080409040E1F700C004
:1008500000000E94940A882359F00E949A0A813766
:1008600011F0813529F48DEC9DE50E942F0A089541
:100870008DEE9DE50E942F0A2FEF87EA91E6215029
:1008800080409040E1F700C0000084E19EE50E94B6
:100890002F0A0E94D4090E94D7090E94F5090E94DC
:1008A000E90985E29EE50E942F0A0E94D10988236A
:1008B00029F088E39EE50E942F0A04C080E59EE5AA
:1008C0000E942F0A0E946B082FEF85EA9EE02150BC
:1008D00080409040E1F700C000000E946F0886E66B
:1008E0009EE50E942F0A0895CF93DF93CDB7DEB720
:1008F0002897CDBFDEBF80E89EE50E942F0A0E94A8
:100900007809CE0101960E94B509882309F455C0E3
:100910008A81843409F051C08B81883609F04DC03A
:100920008AE99EE50E942F0A88EA9EE50E942F0A26
:1009300089810E94AE018BEE9DE50E942F0A85EB16
:100940009EE50E942F0A8A810E94AE018B810E943F
:10095000AE018BEE9DE50E942F0A82EC9EE50E947F
:100960002F0A8C810E94AE018BEE9DE50E942F0A1A
:100970008FEC9EE50E942F0A8D810E94AE018E8130
:100980000E94AE018BEE9DE50E942F0A8CED9EE544
:100990000E942F0A8F810E94AE018BEE9DE50E947E
:1009A0002F0A89EE9EE50E942F0A88850E94AE01DB
:1009B0008BEE9DE50E942F0A04C086EF9EE50E9403
:1009C0002F0A84E19FE50E942F0A2896CDBFDEBF43
:1009D000DF91CF9108958CE29FE50E942F0A8BE46E
:1009E0009FE50E942F0A8BE59FE50E942F0A8CE667
:1009F0009FE50E942F0A0E94940A8823E1F30E9437
:100A00009A0A813339F40E94780985E79FE50E94AC
:100A10002F0AF1CF803339F40E949E0983E89FE5C5
:100A20000E942F0AE8CF813711F0813521F70E940B
:100A30009E0982E99FE50E942F0A08958F929F9256
:100A4000AF92BF92CF92DF92EF92FF920F931F93DC
:100A5000CF93DF931F92CDB7DEB719820E94ED00CE
:100A600084EB9FE50E942F0A2FEF89E698E1215041
:100A700080409040E1F700C00000C12CD12C7601ED
:100A80000FEA1FE50E94940A882369F00E949A0ADF
:100A9000813711F0813539F40E94730884ED9FE5A8
:100AA0000E942F0ACCC0CE0101960E94820781309D
:100AB00029F489810E943E088C0104C0823011F41F
:100AC0000FEA1FE50E94B70620E030E048EC52E450
:100AD0000E947D0C20E030E040E05FE30E94B90A14
:100AE0000E949C0B80E090E00E94CB0B20E030E065
:100AF00048EC52E40E942A0B4B015C010E94F60074
:100B000086E49AE50E942F0A88E69AE50E942F0A59
:100B10008CE29BE50E942F0A86E49AE50E942F0A48
:100B200080E09DE50E942F0A0E9499080E942F0AEA
:100B30008BEE9DE50E942F0A89EB9CE50E942F0A0F
:100B40000E94A3080E942F0A8BEE9DE50E942F0AA7
:100B500080E59DE50E942F0A0E948E08811107C042
:100B600080EF9FE50E942F0A0E9473081CC00E941C
:100B70009408811107C084EF9FE50E942F0A0E940C
:100B8000730811C00E941D070E942F0A0E941607B9
:100B9000882329F00E9463080E946F0804C00E9405
:100BA00067080E946B088BEE9DE50E942F0A8BE080
:100BB0009DE50E942F0AC501B4010E94520182E8FE
:100BC0009CE50E942F0AC501B4010E94D0060E9434
:100BD0002F0A8CE49CE50E942F0A8DEF9FE50E946E
:100BE0002F0AC8010E942F0A8BEE9DE50E942F0A52
:100BF00088E090E60E942F0A460157012FEF821AE3
:100C0000920AA20AB20AC701B6010E94DD018BEE68
:100C10009DE50E942F0A86E49AE50E942F0A83E14F
:100C200090E60E942F0A8FEF96E721E081509040D6
:100C30002040E1F700C000007501640123CF0F9050
:100C4000DF91CF911F910F91FF90EF90DF90CF90A8
:100C5000BF90AF909F908F9008950E94B400089528
:100C6000CF930E94940A8823A9F10E949A0AC82F60
:100C70000E94280A8BEE9DE50E942F0A8C2F90E09F
:100C8000FC01F197E834F105F8F4E05BFF4F0C94B8
:100C90000C0D0E941E021CC00E947A0219C00E9404
:100CA000C00216C00E94690313C00E943C0310C01A
:100CB0000E9412040DC00E9474040AC00E94EB043A
:100CC00007C00E941E0504C08CE190E60E942F0A16
:100CD0000E94B400CF910895E0E6F4E091E09283A1
:100CE00080898460808BE0E0F6E0108283E182837B
:100CF0001182168290830895E0E0F6E0168281E08A
:100D0000808780910B0680FFFCCFE0E0F6E081E079
:100D100083878089918908950E946C060895CF92F7
:100D2000DF92EF92FF92CF93DF93D82F811101C012
:100D3000D1E0C0E0C12CD12C760107C00E947C0616
:100D4000C80ED91EE11CF11CCF5FCD17B8F32D2FB3
:100D500030E040E050E0C701B6010E94EA0CC90152
:100D6000DF91CF91FF90EF90DF90CF90089580E1D9
:100D70000E948F06BC0180E090E00E94CB0B28E42B
:100D800031EE4AE550E40E947D0C20E030EC4FE764
:100D900054E40E942A0B9B01AC010E94B90A0895F9
:100DA000CF92DF92EF92FF9220E030E048EC52E4E5
:100DB0000E947D0C20E030E040E05FE30E94B90A31
:100DC0000E949C0B80E090E00E94CB0B20E030E082
:100DD00048EC52E40E942A0B6B017C0120E030E0D9
:100DE00040E450E40E94250B88236CF026E636E6AA
:100DF00046E650E4C701B6010E94250B882334F46F
:100E000086E390E605C082E390E602C08AE390E6BE
:100E1000FF90EF90DF90CF90089582E0809362047E
:100E20000895809168048695817008950E94110745
:100E300091E0811190E0892F08950E941107882385
:100E400019F08FE390E6089584E490E608958FE02A
:100E5000809346040895CF93C82F0E942707C1307E
:100E600051F028F0C23059F0C33069F00FC081E072
:100E7000809345040BC082E08093450407C084E062
:100E80008093450403C088E080934504CF91089582
:100E9000813051F028F0823061F0833081F015C04C
:100EA000809128048170089580912804869581702E
:100EB00008958091280482FB882780F90895809105
:100EC000280483FB882780F9089580E00895880F1F
:100ED000880F860F0895CF93CFE0C09341040E94FE
:100EE0002707E0E2F4E0C2838089877F808B8189D5
:100EF000877F818B8289877F828B8389877F838BA2
:100F0000CF910895EF92FF920F931F93CF93DF93AA
:100F10007C0110E0A2C0812F0E942B078AE68A95EF
:100F2000F1F700C000E095C0602F812F0E94670795
:100F3000C82F802F0E944807D0E0FE01EE0FFF1F50
:100F4000EC0FFD1FE050F84D90818917B1F0FE01C4
:100F5000EE0FFF1FEC0FFD1FE050F84D92819F5FD9
:100F60009283933090F0FE01EE0FFF1FEC0FFD1FF8
:100F7000E050F84D8083128208C0FE01EE0FFF1F83
:100F8000EC0FFD1FE050F84D1282FE01EE0FFF1F27
:100F9000EC0FFD1FE050F84D8081813019F5FE0106
:100FA000EE0FFF1FEC0FFD1FE050F84D91819111E6
:100FB00019C0FE01EE0FFF1FEC0FFD1FE050F84DB2
:100FC00081830E942707E12FF0E0EE0FFF1FEE0F55
:100FD000FF1FEB58FF49E00FF11D8081F70180836F
:100FE000811142C0FE01EE0FFF1FEC0FFD1FE0500C
:100FF000F84D8081811123C0FE01EE0FFF1FEC0F21
:10100000FD1FE050F84D91819130C9F4FE01EE0FC3
:10101000FF1FEC0FFD1FE050F84D81830E94270752
:10102000E12FF0E0EE0FFF1FEE0FFF1FEB58FF491F
:10103000E00FF11D8081F7018083811117C0CE017F
:10104000880F991FC80FD91FC050D84D8881898338
:101050000F5F043008F468CF1F5F143008F45BCFD3
:101060000E94270780E003C081E001C082E0DF9199
:10107000CF911F910F91FF90EF90089590E0FC01A8
:101080003197E830F105C8F4E856FF4F0C940C0D89
:101090008DE490E6089587E590E608958CE590E666
:1010A000089581E690E6089586E690E608958BE639
:1010B00090E6089580E790E608958FEA9FE5089509
:1010C00082E590E6089580E280934604089580E2E8
:1010D00080934504089580E480934604089580E455
:1010E000809345040895E0E4F4E080E2858380E4A1
:1010F00085830895E0E4F4E080E2818380E48183E5
:101100000E9473080895E0E4F4E080E88283878910
:101110008860878B80E18093A204089580914804C1
:10112000881F8827881F08958091A8048295817060
:1011300008950E948E08882319F085E890E60895A6
:1011400082E990E608950E949408882319F085EAC0
:1011500090E6089582EA90E6089588E080938604F8
:10116000089588E08093850408958093C408809151
:10117000C3088823E4F78091C40808950F931F9350
:10118000CF93DF938C01D62F0E94AD08C0E007C03B
:10119000F801EC0FF11D80810E94B508CF5FCD17DB
:1011A000B8F30E94B108DF91CF911F910F9108957C
:1011B000E0E8F4E088E0858385E086838DE0818344
:1011C00082E082830895E0ECF8E080818E7F808366
:1011D000E0E8F4E08FE0868381830895E0EAF4E0BC
:1011E00080E282839BE0958B81870895E0EAF4E0BA
:1011F000158A80E281870895CF92DF92FF920F9344
:101200001F93CF93DF936C01F62EC0E0D0E023C094
:101210000E94AD0884E40E94B5088FEF0E94B508D3
:101220008F3F91F40AC086010C0F111D8FEF0E94B1
:10123000B508F8018083CF5F01C0C0E0CF1598F3F7
:101240000E94B10881E00CC00E94B108FAE6FA954C
:10125000F1F700C02196C43F81E0D807C8F280E0D2
:10126000DF91CF911F910F91FF90DF90CF90089564
:10127000CF93DF93CDB7DEB72797CDBFDEBF82E038
:10128000898381E08A831B828C8389EC8D8383EC44
:101290008E8380E88F8367E0CE0101960E94BE08AE
:1012A0002FEF89EF90E0215080409040E1F700C09F
:1012B000000081E02796CDBFDEBFDF91CF9108957A
:1012C00082E08093E305E0E8F4E09DE0918382838F
:1012D0000E94B108E0E6F4E080E4818390E8918325
:1012E00095838583E0ECF8E083E2808311820895A2
:1012F000CF93DF93C0E6D4E080E48E838FE39CE954
:101300000197F1F700C000000E94D808E0ECF8E077
:1013100083E2808311820E94EE0880E889838E83B5
:101320009FEF29EF80E0915020408040E1F700C01E
:1013300000000E943809DF91CF910895CF93DF9389
:101340000E94F608C0E6D4E080E88D83EFE1FEE479
:101350003197F1F700C000008E8389830E94E30873
:1013600080E48D83DF91CF9108950F931F93CF93E6
:10137000DF931F92CDB7DEB78C0181E0898361E0F6
:10138000CE0101960E94BE0868E0C8010E94FC08D8
:101390000F90DF91CF911F910F91089510923028F7
:1013A0000895809130280895109230280895E0E43F
:1013B000F4E08FE081838583E0E2F4E0828382E0E1
:1013C000808B818B828B838B8FEF8187109230286B
:1013D0000895E0E2F4E0108A118A128A138A8FE0FD
:1013E000809346048FEF81870895E0E5F0E085E083
:1013F0008083789488950000108208951F920F9240
:101400000FB60F9211248F9381E0809330288FEFD5
:10141000809329048F910F900FBE0F901F90189505
:10142000E0EEF5E082818C7F81608283E0E0F4E091
:1014300080E18183858380E28283E0E0F8E08CE2D2
:1014400092E08087918783E0878380EC868308958C
:101450009091040895FFFCCF8093020808950F93A4
:101460001F93CF93DF93EC010CC08A3019F48DE009
:101470000E94280A8E010F5F1F4F88810E94280A50
:10148000E80188818111F1CFDF91CF911F910F91F8
:1014900008951F93CF93DF93C82F843628F1D9E2A4
:1014A0008D9FD12D1124D295DF7080E38D0F0E9486
:1014B000280A1C2F84E6D89F10191124CDEC1C9FFC
:1014C000C12D1124C695C695C69580E38C0F0E9448
:1014D000280ACC0F8C2F880F880FC80F812F8C1BE8
:1014E000805D0E94280A1CC08A30B0F0DDEC8D9F20
:1014F000D12D1124D695D695D69580E38D0F0E94D7
:10150000280ADD0F8D2F880F880FD80F8C2F8D1B89
:10151000805D0E94280A04C080E38C0F0E94280A84
:10152000DF91CF911F91089580910408881F88272B
:10153000881F089580910008089588ED84BF109257
:1015400061000E94100A0E947A080E946B070E94A4
:101550008C060E9483080E940D070E94CE090E94FB
:1015600060090E949E090E942D060E943006FDCF50
:101570005058BB27AA270E94D00A0C94430C0E9403
:10158000350C38F00E943C0C20F039F49F3F19F4E0
:1015900026F40C94320C0EF4E095E7FB0C942C0C22
:1015A000E92F0E94540C58F3BA1762077307840797
:1015B000950720F079F4A6F50C94760C0EF4E095DE
:1015C0000B2EBA2FA02D0B01B90190010C01CA01FD
:1015D000A0011124FF27591B99F0593F50F4503EA8
:1015E00068F11A16F040A22F232F342F4427585F9A
:1015F000F3CF469537952795A795F0405395C9F7B2
:101600007EF41F16BA0B620B730B840BBAF0915069
:10161000A1F0FF0FBB1F661F771F881FC2F70EC008
:10162000BA0F621F731F841F48F4879577956795DB
:10163000B795F7959E3F08F0B0CF9395880F08F0C7
:101640009927EE0F9795879508950E94080C08F446
:1016500081E008950E943E0B0C94430C0E943C0CC8
:1016600058F00E94350C40F029F45F3F29F00C94AB
:101670002C0C51110C94770C0C94320C0E94540CCD
:1016800068F39923B1F3552391F3951B550BBB27B1
:10169000AA2762177307840738F09F5F5F4F220FF6
:1016A000331F441FAA1FA9F335D00E2E3AF0E0E8ED
:1016B00032D091505040E695001CCAF72BD0FE2F37
:1016C00029D0660F771F881FBB1F261737074807CB
:1016D000AB07B0E809F0BB0B802DBF01FF27935883
:1016E0005F4F3AF09E3F510578F00C942C0C0C940F
:1016F000770C5F3FE4F3983ED4F386957795679532
:10170000B795F7959F5FC9F7880F911D96958795B7
:1017100097F90895E1E0660F771F881FBB1F6217D6
:1017200073078407BA0720F0621B730B840BBA0B94
:10173000EE1F88F7E09508950E945C0C88F09F5793
:1017400098F0B92F9927B751B0F0E1F0660F771FE5
:10175000881F991F1AF0BA95C9F714C0B13091F0DB
:101760000E94760CB1E008950C94760C672F782FC8
:101770008827B85F39F0B93FCCF3869577956795A0
:10178000B395D9F73EF490958095709561957F4F0C
:101790008F4F9F4F0895E89409C097FB3EF49095B2
:1017A0008095709561957F4F8F4F9F4F9923A9F03A
:1017B000F92F96E9BB279395F695879577956795C9
:1017C000B795F111F8CFFAF4BB0F11F460FF1BC00D
:1017D0006F5F7F4F8F4F9F4F16C0882311F096E9A0
:1017E00011C0772321F09EE8872F762F05C066234E
:1017F00071F096E8862F70E060E02AF09A95660F07
:10180000771F881FDAF7880F9695879597F90895BF
:10181000990F0008550FAA0BE0E8FEEF1616170601
:10182000E807F907C0F012161306E407F50798F069
:10183000621B730B840B950B39F40A2661F0232B82
:10184000242B252B21F408950A2609F4A140A695FE
:101850008FEF811D811D089597F99F6780E870E0E3
:1018600060E008959FEF80EC089500240A94161616
:10187000170618060906089500240A94121613067E
:10188000140605060895092E0394000C11F488230C
:1018900052F0BB0F40F4BF2B11F460FF04C06F5F28
:1018A0007F4F8F4F9F4F089557FD9058440F551FFE
:1018B00059F05F3F71F04795880F97FB991F61F0D2
:1018C0009F3F79F087950895121613061406551F49
:1018D000F2CF4695F1DF08C0161617061806991FB5
:1018E000F1CF86957105610508940895E894BB27AA
:1018F00066277727CB0197F908950E94900C0C94E6
:10190000430C0E94350C38F00E943C0C20F09523CB
:1019100011F00C942C0C0C94320C11240C94770CB8
:101920000E94540C70F3959FC1F3950F50E0551F22
:10193000629FF001729FBB27F00DB11D639FAA2724
:10194000F00DB11DAA1F649F6627B00DA11D661F73
:10195000829F2227B00DA11D621F739FB00DA11D94
:10196000621F839FA00D611D221F749F3327A00D4E
:10197000611D231F849F600D211D822F762F6A2FEA
:1019800011249F5750409AF0F1F088234AF0EE0F4F
:10199000FF1FBB1F661F771F881F91505040A9F77C
:1019A0009E3F510580F00C942C0C0C94770C5F3FFB
:1019B000E4F3983ED4F3869577956795B795F795B8
:1019C000E7959F5FC1F7FE2B880F911D9695879530
:1019D00097F90895A1E21A2EAA1BBB1BFD010DC0A9
:1019E000AA1FBB1FEE1FFF1FA217B307E407F507CF
:1019F00020F0A21BB30BE40BF50B661F771F881FAB
:101A0000991F1A9469F760957095809590959B0140
:101A1000AC01BD01CF010895EE0FFF1F0590F491B9
:101A2000E02D0994A29FB001B39FC001A39F700D48
:101A3000811D1124911DB29F700D811D1124911DD6
:061A40000895F894FFCFA9
:101A46003D3D3D3D3D3D3D3D3D3D3D3D3D3D3D3DC0
:101A56003D3D3D3D3D3D3D3D3D3D3D3D3D3D3D3DB0
:101A66000A00545820424F415244205445535420B2
:101A760046572076302E310A00312E204C45442020
:101A8600546573740A00322E204B657920496E70B6
:101A9600757420546573740A00332E204261747481
:101AA60065727920566F6C7461676520436865635B
:101AB6006B0A00342E204368617267657220537486
:101AC6006174757320436865636B0A00352E203593
:101AD6005620496E707574204465746563740A00F7
:101AE600362E20536C6565702F57616B65757020B7
:101AF600546573740A00372E2053693434363820FF
:101B060053504920546573740A00382E20524620DB
:101B1600506F776572204F6E2F4F6666205465733F
:101B2600740A00782E20436F6E74696E756F757334
:101B3600204D6F6E69746F720A0053656C6563742D
:101B46003A20001B5B324A001B5B480030313233BF
:101B5600343536373839414243444546000A5B4CF2
:101B6600454420546573742053746172745D0A0091
:101B7600424154204C4544204F4E0A0042415420D5
:101B86004C4544204F46460A005458204C454420B4
:101B96004F4E0A005458204C4544204F46460A00F2
:101BA600414C4C204C4544204F4E0A00414C4C20A1
:101BB6004C4544204F46460A005B4C45442054653C
:101BC600737420456E645D0A0A000A5B4B657920D2
:101BD600496E707574205465737420537461727401
:101BE6005D0A00507265737320616E79206B6579AA
:101BF6002E2050726573732027712720746F20651D
:101C06007869742E0A005B4B657920496E7075748D
:101C1600205465737420456E645D0A0A004B45596D
:101C2600002050524553530A000A5B4261747465A2
:101C3600727920566F6C7461676520436865636BC3
:101C46002053746172745D0A005B4261747465723C
:101C56007920566F6C7461676520436865636B20F5
:101C6600456E645D0A0A0042415420524157203DA8
:101C760020002C2056424154203D20002056205B57
:101C8600000A5B355620496E70757420446574658C
:101C960063742053746172745D0A005B3556204983
:101CA6006E7075742044657465637420456E645D5A
:101CB6000A0A0041444150544552203A20000A5B2A
:101CC600436861726765722053746174757320434B
:101CD6006865636B2053746172745D0A005B4368C8
:101CE6006172676572205374617475732043686509
:101CF600636B20456E645D0A0A00545950452020E6
:101D060020203A200056424154202020203A20002C
:101D160043484152474520203A204E2F4120285023
:101D260052494D415259204241545445525920542A
:101D3600595045290A0043484152474520203A2038
:101D46004E4F20494E5055540A004348415247458C
:101D560020203A20000A5B536C6565702F57616B33
:101D660065757020546573742053746172745D0ACE
:101D760000416E79206B65792077696C6C207761FC
:101D86006B652075702074686520626F6172642EC1
:101D96000A00507265737320277127206265666F8B
:101DA600726520736C65657020656E747279206942
:101DB6006620796F752077616E7420746F20636179
:101DC6006E63656C2E0A005B536C6565702F5761F8
:101DD6006B65757020546573742043616E63656C22
:101DE6006C65645D0A0A00456E746572696E6720EB
:101DF600504F5745522D444F574E20736C656570B2
:101E060020696E2032207365632E2E2E0A00536CD5
:101E1600656570696E67206E6F772E2E2E0A0057E5
:101E2600616B652D757020646574656374656421E6
:101E36000A0057616B6520736F757263653A204BB4
:101E4600455920494E5055540A0057616B65207319
:101E56006F757263653A20554E4B4E4F574E0A00CA
:101E66005B536C6565702F57616B657570205465A3
:101E7600737420456E645D0A0A000A5B5369343444
:101E86003638205350492054657374205374617258
:101E9600745D0A00504152545F494E464F204F4BE5
:101EA6000A0043484950524556203A20307800509F
:101EB600415254202020203A203078005042554983
:101EC6004C4420203A20307800494420202020200D
:101ED600203A20307800435553544F4D45523A200E
:101EE600307800524F4D49442020203A2030780067
:101EF600504152545F494E464F204641494C202D91
:101F0600204354532074696D656F75740A005B53E2
:101F1600693434363820535049205465737420454B
:101F26006E645D0A0A000A5B524620506F7765723E
:101F3600204F6E2F4F66662054657374205374616C
:101F460072745D0A00313A20524620506F776572EE
:101F5600204F4E0A00303A20524620506F77657265
:101F6600204F46460A00713A20457869740A0052A5
:101F76004620504F5745523A204F4E0A00524620AF
:101F8600504F5745523A204F46460A005B5246206C
:101F9600506F776572204F6E2F4F666620546573BB
:101FA6007420456E645D0A0A004E4F4E4500456E2C
:101FB600746572696E6720436F6E74696E756F75AE
:101FC60073204D6F6E69746F722E2E2E0A000A5B97
:101FD600436F6E74696E756F7573204D6F6E69749D
:101FE6006F7220456E645D0A0A004E2F41004E4F07
:101FF60020494E505554004B455920202020203A68
:10200600200052454652455348203A2000713A2056
:10201600657869740A005B496E76616C6964207341
:10202600656C656374696F6E5D0A0A004C4F5700F4
:102036004D494400474F4F440046554C4C004348D9
:10204600415247494E47004B455931004B4559329D
:10205600004B455933004B455934004B4559350023
:102066004B455936004B455937004B455938000109
:1020760003050702040608000000000000000052E5
:102086004543484152474541424C45005052494D0F
:102096004152595F424154544552590044495343B1
:0920A6004F4E4E454354454400E1
:00000001FF
